{
  "_format": "hh-sol-artifact-1",
  "contractName": "Manager",
  "sourceName": "src/Manager.sol",
  "abi": [
    {
      "inputs": [],
      "name": "MG_ADDRESS_ZERO",
      "type": "error"
    },
    {
      "inputs": [],
      "name": "MG_AGREEMENT_NOT_PENDING",
      "type": "error"
    },
    {
      "inputs": [],
      "name": "MG_AMOUNT_TOO_HIGH",
      "type": "error"
    },
    {
      "inputs": [],
      "name": "MG_CONTRACTOR_EQUALS_CONTRACTEE",
      "type": "error"
    },
    {
      "inputs": [],
      "name": "MG_INVALID_MATURITY_DATE",
      "type": "error"
    },
    {
      "inputs": [],
      "name": "MG_INVALID_PERCENTAGES",
      "type": "error"
    },
    {
      "inputs": [],
      "name": "MG_INVALID_TOKEN",
      "type": "error"
    },
    {
      "inputs": [],
      "name": "MG_NOT_ONGOING",
      "type": "error"
    },
    {
      "inputs": [],
      "name": "MG_UNAUTHORIZED",
      "type": "error"
    },
    {
      "anonymous": false,
      "inputs": [
        {
          "indexed": false,
          "internalType": "uint256",
          "name": "agreementID",
          "type": "uint256"
        }
      ],
      "name": "AgreementActivated",
      "type": "event"
    },
    {
      "anonymous": false,
      "inputs": [
        {
          "indexed": false,
          "internalType": "uint256",
          "name": "agreementID",
          "type": "uint256"
        }
      ],
      "name": "AgreementCancelled",
      "type": "event"
    },
    {
      "anonymous": false,
      "inputs": [
        {
          "indexed": false,
          "internalType": "uint256",
          "name": "agreementID",
          "type": "uint256"
        }
      ],
      "name": "AgreementChallenged",
      "type": "event"
    },
    {
      "anonymous": false,
      "inputs": [
        {
          "indexed": false,
          "internalType": "uint256",
          "name": "agreementID",
          "type": "uint256"
        },
        {
          "indexed": false,
          "internalType": "address",
          "name": "contractor",
          "type": "address"
        },
        {
          "indexed": false,
          "internalType": "address",
          "name": "contractee",
          "type": "address"
        }
      ],
      "name": "AgreementCreated",
      "type": "event"
    },
    {
      "anonymous": false,
      "inputs": [
        {
          "indexed": false,
          "internalType": "uint256",
          "name": "agreement",
          "type": "uint256"
        },
        {
          "indexed": false,
          "internalType": "uint128",
          "name": "amount",
          "type": "uint128"
        }
      ],
      "name": "FundsDeposited",
      "type": "event"
    },
    {
      "anonymous": false,
      "inputs": [
        {
          "indexed": false,
          "internalType": "uint256",
          "name": "agreement",
          "type": "uint256"
        },
        {
          "indexed": false,
          "internalType": "uint128",
          "name": "amount",
          "type": "uint128"
        }
      ],
      "name": "FundsMigrated",
      "type": "event"
    },
    {
      "anonymous": false,
      "inputs": [
        {
          "indexed": false,
          "internalType": "uint256",
          "name": "agreementID",
          "type": "uint256"
        },
        {
          "indexed": false,
          "internalType": "uint128",
          "name": "contractorAmount",
          "type": "uint128"
        },
        {
          "indexed": false,
          "internalType": "uint128",
          "name": "contracteeAmount",
          "type": "uint128"
        }
      ],
      "name": "FundsSplitted",
      "type": "event"
    },
    {
      "anonymous": false,
      "inputs": [
        {
          "indexed": false,
          "internalType": "uint8",
          "name": "version",
          "type": "uint8"
        }
      ],
      "name": "Initialized",
      "type": "event"
    },
    {
      "anonymous": false,
      "inputs": [
        {
          "indexed": false,
          "internalType": "address",
          "name": "account",
          "type": "address"
        }
      ],
      "name": "Paused",
      "type": "event"
    },
    {
      "anonymous": false,
      "inputs": [
        {
          "indexed": true,
          "internalType": "bytes32",
          "name": "role",
          "type": "bytes32"
        },
        {
          "indexed": true,
          "internalType": "bytes32",
          "name": "previousAdminRole",
          "type": "bytes32"
        },
        {
          "indexed": true,
          "internalType": "bytes32",
          "name": "newAdminRole",
          "type": "bytes32"
        }
      ],
      "name": "RoleAdminChanged",
      "type": "event"
    },
    {
      "anonymous": false,
      "inputs": [
        {
          "indexed": true,
          "internalType": "bytes32",
          "name": "role",
          "type": "bytes32"
        },
        {
          "indexed": true,
          "internalType": "address",
          "name": "account",
          "type": "address"
        },
        {
          "indexed": true,
          "internalType": "address",
          "name": "sender",
          "type": "address"
        }
      ],
      "name": "RoleGranted",
      "type": "event"
    },
    {
      "anonymous": false,
      "inputs": [
        {
          "indexed": true,
          "internalType": "bytes32",
          "name": "role",
          "type": "bytes32"
        },
        {
          "indexed": true,
          "internalType": "address",
          "name": "account",
          "type": "address"
        },
        {
          "indexed": true,
          "internalType": "address",
          "name": "sender",
          "type": "address"
        }
      ],
      "name": "RoleRevoked",
      "type": "event"
    },
    {
      "anonymous": false,
      "inputs": [
        {
          "indexed": false,
          "internalType": "address",
          "name": "account",
          "type": "address"
        }
      ],
      "name": "Unpaused",
      "type": "event"
    },
    {
      "inputs": [],
      "name": "DEFAULT_ADMIN_ROLE",
      "outputs": [
        {
          "internalType": "bytes32",
          "name": "",
          "type": "bytes32"
        }
      ],
      "stateMutability": "view",
      "type": "function"
    },
    {
      "inputs": [],
      "name": "DOMAIN_SEPARATOR",
      "outputs": [
        {
          "internalType": "bytes32",
          "name": "",
          "type": "bytes32"
        }
      ],
      "stateMutability": "view",
      "type": "function"
    },
    {
      "inputs": [
        {
          "internalType": "uint256",
          "name": "agreementID",
          "type": "uint256"
        }
      ],
      "name": "activateAgreement",
      "outputs": [],
      "stateMutability": "nonpayable",
      "type": "function"
    },
    {
      "inputs": [],
      "name": "agreementNonce",
      "outputs": [
        {
          "internalType": "uint256",
          "name": "",
          "type": "uint256"
        }
      ],
      "stateMutability": "view",
      "type": "function"
    },
    {
      "inputs": [
        {
          "internalType": "uint256",
          "name": "",
          "type": "uint256"
        }
      ],
      "name": "agreements",
      "outputs": [
        {
          "components": [
            {
              "internalType": "uint256",
              "name": "AGREEMENT_ID",
              "type": "uint256"
            },
            {
              "internalType": "uint128",
              "name": "BEGINNING_DATE",
              "type": "uint128"
            },
            {
              "internalType": "uint128",
              "name": "MATURITY_DATE",
              "type": "uint128"
            },
            {
              "internalType": "uint128",
              "name": "PAYMENT_CYCLE_DURATION",
              "type": "uint128"
            },
            {
              "internalType": "uint128",
              "name": "PAYMENT_CYCLE_AMOUNT",
              "type": "uint128"
            },
            {
              "internalType": "uint128",
              "name": "ESTABLISHMENT_FEE_RATE",
              "type": "uint128"
            },
            {
              "internalType": "uint128",
              "name": "PENALIZATION_AMOUNT",
              "type": "uint128"
            },
            {
              "internalType": "address",
              "name": "UNDERLAYING_TOKEN",
              "type": "address"
            },
            {
              "internalType": "address",
              "name": "CONTRACTOR",
              "type": "address"
            },
            {
              "internalType": "address",
              "name": "CONTRACTEE",
              "type": "address"
            },
            {
              "internalType": "string",
              "name": "DESCRIPTION_URI",
              "type": "string"
            },
            {
              "internalType": "uint128",
              "name": "CURRENT_MIGRATION",
              "type": "uint128"
            }
          ],
          "internalType": "struct Types.AgreementParameters",
          "name": "parameters",
          "type": "tuple"
        },
        {
          "components": [
            {
              "internalType": "uint128",
              "name": "escrowedFunds",
              "type": "uint128"
            },
            {
              "internalType": "bool",
              "name": "closed",
              "type": "bool"
            },
            {
              "internalType": "bool",
              "name": "challenged",
              "type": "bool"
            },
            {
              "internalType": "bool",
              "name": "active",
              "type": "bool"
            }
          ],
          "internalType": "struct Types.AgreementState",
          "name": "state",
          "type": "tuple"
        }
      ],
      "stateMutability": "view",
      "type": "function"
    },
    {
      "inputs": [
        {
          "internalType": "uint256",
          "name": "agreementID",
          "type": "uint256"
        }
      ],
      "name": "cancelAgreement",
      "outputs": [],
      "stateMutability": "nonpayable",
      "type": "function"
    },
    {
      "inputs": [
        {
          "internalType": "uint256",
          "name": "agreementID",
          "type": "uint256"
        }
      ],
      "name": "challengeAgreement",
      "outputs": [],
      "stateMutability": "nonpayable",
      "type": "function"
    },
    {
      "inputs": [],
      "name": "challengeDuration",
      "outputs": [
        {
          "internalType": "uint128",
          "name": "",
          "type": "uint128"
        }
      ],
      "stateMutability": "view",
      "type": "function"
    },
    {
      "inputs": [
        {
          "internalType": "uint256",
          "name": "agreementID",
          "type": "uint256"
        }
      ],
      "name": "checkFundsMigration",
      "outputs": [
        {
          "internalType": "bool",
          "name": "",
          "type": "bool"
        }
      ],
      "stateMutability": "view",
      "type": "function"
    },
    {
      "inputs": [
        {
          "internalType": "bytes",
          "name": "",
          "type": "bytes"
        }
      ],
      "name": "checkUpkeep",
      "outputs": [
        {
          "internalType": "bool",
          "name": "upkeepNeeded",
          "type": "bool"
        },
        {
          "internalType": "bytes",
          "name": "performData",
          "type": "bytes"
        }
      ],
      "stateMutability": "view",
      "type": "function"
    },
    {
      "inputs": [
        {
          "internalType": "uint256",
          "name": "agreementID",
          "type": "uint256"
        },
        {
          "internalType": "uint128",
          "name": "amount",
          "type": "uint128"
        },
        {
          "internalType": "address",
          "name": "to",
          "type": "address"
        }
      ],
      "name": "claimProtocolFees",
      "outputs": [],
      "stateMutability": "nonpayable",
      "type": "function"
    },
    {
      "inputs": [
        {
          "components": [
            {
              "internalType": "uint128",
              "name": "beginningDate",
              "type": "uint128"
            },
            {
              "internalType": "uint128",
              "name": "maturityDate",
              "type": "uint128"
            },
            {
              "internalType": "uint128",
              "name": "paymentCycleDuration",
              "type": "uint128"
            },
            {
              "internalType": "uint128",
              "name": "paymentCycleAmount",
              "type": "uint128"
            },
            {
              "internalType": "address",
              "name": "underlayingToken",
              "type": "address"
            },
            {
              "internalType": "address",
              "name": "contractor",
              "type": "address"
            },
            {
              "internalType": "string",
              "name": "descriptionURI",
              "type": "string"
            }
          ],
          "internalType": "struct IManager.AgreementCreationParams",
          "name": "params",
          "type": "tuple"
        }
      ],
      "name": "createAgreement",
      "outputs": [],
      "stateMutability": "nonpayable",
      "type": "function"
    },
    {
      "inputs": [
        {
          "internalType": "uint256",
          "name": "agreementID",
          "type": "uint256"
        }
      ],
      "name": "depositFundsForNextCycle",
      "outputs": [
        {
          "internalType": "bool",
          "name": "",
          "type": "bool"
        }
      ],
      "stateMutability": "nonpayable",
      "type": "function"
    },
    {
      "inputs": [],
      "name": "establishmentFeeRate",
      "outputs": [
        {
          "internalType": "uint128",
          "name": "",
          "type": "uint128"
        }
      ],
      "stateMutability": "view",
      "type": "function"
    },
    {
      "inputs": [],
      "name": "freezeAgreements",
      "outputs": [],
      "stateMutability": "nonpayable",
      "type": "function"
    },
    {
      "inputs": [
        {
          "internalType": "uint256",
          "name": "agreementID",
          "type": "uint256"
        }
      ],
      "name": "getAgreementParameters",
      "outputs": [
        {
          "internalType": "uint128",
          "name": "beginningDate",
          "type": "uint128"
        },
        {
          "internalType": "uint128",
          "name": "maturityDate",
          "type": "uint128"
        },
        {
          "internalType": "uint128",
          "name": "paymentCycleDuration",
          "type": "uint128"
        },
        {
          "internalType": "uint128",
          "name": "paymentCycleAmount",
          "type": "uint128"
        },
        {
          "internalType": "uint128",
          "name": "establishmentFeeRate_",
          "type": "uint128"
        },
        {
          "internalType": "uint128",
          "name": "penalizationAmount_",
          "type": "uint128"
        },
        {
          "internalType": "address",
          "name": "underlayingToken",
          "type": "address"
        },
        {
          "internalType": "address",
          "name": "contractor",
          "type": "address"
        },
        {
          "internalType": "address",
          "name": "contractee",
          "type": "address"
        },
        {
          "internalType": "string",
          "name": "descriptionURI",
          "type": "string"
        },
        {
          "internalType": "uint128",
          "name": "currentMigration",
          "type": "uint128"
        }
      ],
      "stateMutability": "view",
      "type": "function"
    },
    {
      "inputs": [
        {
          "internalType": "uint256",
          "name": "agreementID",
          "type": "uint256"
        }
      ],
      "name": "getAgreementState",
      "outputs": [
        {
          "internalType": "uint128",
          "name": "escrowedFunds",
          "type": "uint128"
        },
        {
          "internalType": "bool",
          "name": "closed",
          "type": "bool"
        },
        {
          "internalType": "bool",
          "name": "challenged",
          "type": "bool"
        },
        {
          "internalType": "bool",
          "name": "active",
          "type": "bool"
        }
      ],
      "stateMutability": "view",
      "type": "function"
    },
    {
      "inputs": [
        {
          "internalType": "bytes32",
          "name": "role",
          "type": "bytes32"
        }
      ],
      "name": "getRoleAdmin",
      "outputs": [
        {
          "internalType": "bytes32",
          "name": "",
          "type": "bytes32"
        }
      ],
      "stateMutability": "view",
      "type": "function"
    },
    {
      "inputs": [
        {
          "internalType": "address",
          "name": "user",
          "type": "address"
        }
      ],
      "name": "getUserAgreements",
      "outputs": [
        {
          "internalType": "uint256[]",
          "name": "",
          "type": "uint256[]"
        }
      ],
      "stateMutability": "view",
      "type": "function"
    },
    {
      "inputs": [
        {
          "internalType": "bytes32",
          "name": "role",
          "type": "bytes32"
        },
        {
          "internalType": "address",
          "name": "account",
          "type": "address"
        }
      ],
      "name": "grantRole",
      "outputs": [],
      "stateMutability": "nonpayable",
      "type": "function"
    },
    {
      "inputs": [
        {
          "internalType": "bytes32",
          "name": "role",
          "type": "bytes32"
        },
        {
          "internalType": "address",
          "name": "account",
          "type": "address"
        }
      ],
      "name": "hasRole",
      "outputs": [
        {
          "internalType": "bool",
          "name": "",
          "type": "bool"
        }
      ],
      "stateMutability": "view",
      "type": "function"
    },
    {
      "inputs": [
        {
          "internalType": "uint128",
          "name": "challengeDuration_",
          "type": "uint128"
        },
        {
          "internalType": "address",
          "name": "governance_",
          "type": "address"
        }
      ],
      "name": "initialize",
      "outputs": [],
      "stateMutability": "nonpayable",
      "type": "function"
    },
    {
      "inputs": [],
      "name": "initialize_",
      "outputs": [],
      "stateMutability": "nonpayable",
      "type": "function"
    },
    {
      "inputs": [
        {
          "internalType": "uint256",
          "name": "agreementID",
          "type": "uint256"
        }
      ],
      "name": "migrateFunds",
      "outputs": [
        {
          "internalType": "bool",
          "name": "",
          "type": "bool"
        }
      ],
      "stateMutability": "nonpayable",
      "type": "function"
    },
    {
      "inputs": [],
      "name": "name",
      "outputs": [
        {
          "internalType": "string",
          "name": "",
          "type": "string"
        }
      ],
      "stateMutability": "view",
      "type": "function"
    },
    {
      "inputs": [],
      "name": "paused",
      "outputs": [
        {
          "internalType": "bool",
          "name": "",
          "type": "bool"
        }
      ],
      "stateMutability": "view",
      "type": "function"
    },
    {
      "inputs": [],
      "name": "penalizationAmount",
      "outputs": [
        {
          "internalType": "uint128",
          "name": "",
          "type": "uint128"
        }
      ],
      "stateMutability": "view",
      "type": "function"
    },
    {
      "inputs": [
        {
          "internalType": "bytes",
          "name": "performData",
          "type": "bytes"
        }
      ],
      "name": "performUpkeep",
      "outputs": [],
      "stateMutability": "nonpayable",
      "type": "function"
    },
    {
      "inputs": [
        {
          "internalType": "bytes32",
          "name": "role",
          "type": "bytes32"
        },
        {
          "internalType": "address",
          "name": "account",
          "type": "address"
        }
      ],
      "name": "renounceRole",
      "outputs": [],
      "stateMutability": "nonpayable",
      "type": "function"
    },
    {
      "inputs": [
        {
          "internalType": "bytes32",
          "name": "role",
          "type": "bytes32"
        },
        {
          "internalType": "address",
          "name": "account",
          "type": "address"
        }
      ],
      "name": "revokeRole",
      "outputs": [],
      "stateMutability": "nonpayable",
      "type": "function"
    },
    {
      "inputs": [
        {
          "internalType": "uint128",
          "name": "challengeDuration_",
          "type": "uint128"
        }
      ],
      "name": "setChallengeDuration",
      "outputs": [],
      "stateMutability": "nonpayable",
      "type": "function"
    },
    {
      "inputs": [
        {
          "internalType": "uint128",
          "name": "establishmentFeeRate_",
          "type": "uint128"
        }
      ],
      "name": "setEstablishmentFeeRate",
      "outputs": [],
      "stateMutability": "nonpayable",
      "type": "function"
    },
    {
      "inputs": [
        {
          "internalType": "uint128",
          "name": "penalizationAmount_",
          "type": "uint128"
        }
      ],
      "name": "setPenalizationAmount",
      "outputs": [],
      "stateMutability": "nonpayable",
      "type": "function"
    },
    {
      "inputs": [
        {
          "internalType": "uint256",
          "name": "agreementID",
          "type": "uint256"
        },
        {
          "internalType": "uint128",
          "name": "contractorPercentage",
          "type": "uint128"
        },
        {
          "internalType": "uint128",
          "name": "contracteePercentage",
          "type": "uint128"
        }
      ],
      "name": "splitFunds",
      "outputs": [],
      "stateMutability": "nonpayable",
      "type": "function"
    },
    {
      "inputs": [
        {
          "internalType": "bytes4",
          "name": "interfaceId",
          "type": "bytes4"
        }
      ],
      "name": "supportsInterface",
      "outputs": [
        {
          "internalType": "bool",
          "name": "",
          "type": "bool"
        }
      ],
      "stateMutability": "view",
      "type": "function"
    },
    {
      "inputs": [],
      "name": "unfreezeAgreements",
      "outputs": [],
      "stateMutability": "nonpayable",
      "type": "function"
    },
    {
      "inputs": [
        {
          "internalType": "uint256",
          "name": "",
          "type": "uint256"
        }
      ],
      "name": "usedNonces",
      "outputs": [
        {
          "internalType": "bool",
          "name": "",
          "type": "bool"
        }
      ],
      "stateMutability": "view",
      "type": "function"
    },
    {
      "inputs": [
        {
          "internalType": "address",
          "name": "",
          "type": "address"
        },
        {
          "internalType": "uint256",
          "name": "",
          "type": "uint256"
        }
      ],
      "name": "userAgreements",
      "outputs": [
        {
          "internalType": "uint256",
          "name": "",
          "type": "uint256"
        }
      ],
      "stateMutability": "view",
      "type": "function"
    },
    {
      "inputs": [
        {
          "internalType": "address",
          "name": "signer",
          "type": "address"
        },
        {
          "internalType": "uint8",
          "name": "v",
          "type": "uint8"
        },
        {
          "internalType": "bytes32",
          "name": "r",
          "type": "bytes32"
        },
        {
          "internalType": "bytes32",
          "name": "s",
          "type": "bytes32"
        },
        {
          "internalType": "string",
          "name": "description",
          "type": "string"
        },
        {
          "internalType": "uint256",
          "name": "nonce",
          "type": "uint256"
        }
      ],
      "name": "validateDescription",
      "outputs": [
        {
          "internalType": "bool",
          "name": "",
          "type": "bool"
        }
      ],
      "stateMutability": "nonpayable",
      "type": "function"
    }
  ],
  "bytecode": "0x6080604052600060cd55600160ce5534801561001a57600080fd5b506137728061002a6000396000f3fe608060405234801561001057600080fd5b506004361061023d5760003560e01c80635686b54b1161013b57806392d5b544116100b8578063adb9cae61161007c578063adb9cae614610571578063bd14de9614610591578063d547741f146105b2578063de640390146105c5578063e8629514146105d857600080fd5b806392d5b544146105325780639eb6156c1461053a578063a0cc8d2c1461054d578063a217fddf14610556578063a63197d21461055e57600080fd5b80636726e867116100ff5780636726e867146104c55780636944560c146104d85780636e04ff0d146104eb5780638aa6ded51461050c57806391d148541461051f57600080fd5b80635686b54b146103f05780635c975abb1461040357806362e414a41461040e57806363f749f5146104215780636717e41c146104a257600080fd5b8063292f2e0e116101c95780633bc528661161018d5780633bc52866146103a4578063419ffe2c146103b7578063429fba4a1461031d5780634585e33b146103ca5780634c27984e146103dd57600080fd5b8063292f2e0e146103305780632f2ff15d146103625780633644e5151461037557806336568abe1461037e5780633a67c2f81461039157600080fd5b80630bd30c12116102105780630bd30c12146102c95780631333f2b7146102d15780631c8abcec146102e4578063248a9ca3146102ec578063291420b31461031d57600080fd5b806301ffc9a71461024257806306fdde031461026a5780630b2655d9146102a15780630b3d97b7146102b6575b600080fd5b610255610250366004612cf6565b610602565b60405190151581526020015b60405180910390f35b6102946040518060400160405280600b81526020016a10dbdb9d1c9858dd199d5b60aa1b81525081565b6040516102619190612d78565b6102b46102af366004612d8b565b610639565b005b6102556102c4366004612dc6565b610aff565b6102b4610cc5565b6102b46102df366004612df6565b610ce8565b6102b4610d20565b61030f6102fa366004612dc6565b60009081526065602052604090206001015490565b604051908152602001610261565b6102b461032b366004612df6565b610e24565b60cb5461034a90600160801b90046001600160801b031681565b6040516001600160801b039091168152602001610261565b6102b4610370366004612e28565b610e5f565b61030f60ca5481565b6102b461038c366004612e28565b610e89565b6102b461039f366004612e54565b610f07565b6102556103b2366004612dc6565b6110b1565b60cb5461034a906001600160801b031681565b6102b46103d8366004612ec0565b61129d565b61030f6103eb366004612f02565b61131f565b6102b46103fe366004612dc6565b611350565b60975460ff16610255565b6102b461041c366004612f2c565b61180d565b61047061042f366004612dc6565b600090815260d160205260409020600901546001600160801b0381169160ff600160801b8304811692600160881b8104821692600160901b90910490911690565b604080516001600160801b03909516855292151560208501529015159183019190915215156060820152608001610261565b6102556104b0366004612dc6565b60c96020526000908152604090205460ff1681565b6102b46104d3366004612f68565b611888565b6102556104e6366004612f9b565b611ada565b6104fe6104f9366004612ec0565b611c3a565b604051610261929190613024565b60cc5461034a906001600160801b031681565b61025561052d366004612e28565b611d94565b6102b4611dbf565b6102b4610548366004612dc6565b611ddf565b61030f60ce5481565b61030f600081565b61025561056c366004612dc6565b611ea5565b61058461057f36600461303f565b611fd3565b604051610261919061305a565b6105a461059f366004612dc6565b61203f565b60405161026192919061309e565b6102b46105c0366004612e28565b6121e3565b6102b46105d3366004612dc6565b612208565b6105eb6105e6366004612dc6565b612301565b6040516102619b9a9998979695949392919061320d565b60006001600160e01b03198216637965db0b60e01b148061063357506301ffc9a760e01b6001600160e01b03198316145b92915050565b610641612445565b60ce54600090815260d160205260409020541561066057610660613299565b600061067260c0830160a0840161303f565b6001600160a01b0316141561069a576040516305bf1d9d60e21b815260040160405180910390fd5b336106ab60c0830160a0840161303f565b6001600160a01b031614156106d3576040516346a4b5e960e01b815260040160405180910390fd5b60006106e560a083016080840161303f565b6001600160a01b0316141561070d57604051639b84273b60e01b815260040160405180910390fd5b4261071e6040830160208401612df6565b6001600160801b03161161074557604051630dcde81360e11b815260040160405180910390fd5b61077861075860a083016080840161303f565b333061076a6080860160608701612df6565b6001600160801b031661248d565b6107886080820160608301612df6565b60ce8054600090815260d1602090815260409182902060090180546001600160801b0319166001600160801b039590951694909417909355805161018081019091529054815290818101906107df90840184612df6565b6001600160801b031681526020018260200160208101906108009190612df6565b6001600160801b0316815260200161081e6060840160408501612df6565b6001600160801b0316815260200161083c6080840160608501612df6565b6001600160801b03908116825260cc548116602083015260cb5416604082015260600161086f60a084016080850161303f565b6001600160a01b0316815260200161088d60c0840160a0850161303f565b6001600160a01b031681523360208201526040016108ae60c08401846132af565b8080601f0160208091040260200160405190810160405280939291908181526020018383808284376000920182905250938552505050602091820181905260ce54815260d182526040908190208351815583830151918401516001600160801b03928316600160801b918416820217600183015560608501516080860151908416908416820217600283015560a085015160c086015190841693160291909117600382015560e08301516004820180546001600160a01b03199081166001600160a01b039384161790915561010085015160058401805483169184169190911790556101208501516006840180549092169216919091179055610140830151805191926109c392600785019290910190612c5d565b506101609190910151600890910180546001600160801b0319166001600160801b0390921691909117905533600090815260d060208181526040832060ce548154600181018355918552918420015590610a2360c0840160a0850161303f565b6001600160a01b03168152602080820192909252604001600090812060ce805482546001818101855593855294842090940193909355915460cf805493840181559091527facb8d954e2cfef495862221e91bd7523613cf8808827cb33edfe4904cc51bf299091018190557fe037ec30313eecdd927ffae3beed86a87b82f7bb794966ec08d75cf1a6e8268690610ac060c0840160a0850161303f565b604080519283526001600160a01b039091166020830152339082015260600160405180910390a160ce8054906000610af78361330c565b919050555050565b6000610b09612445565b600082815260d1602052604081206001810154909190610b3c906001600160801b0380821691600160801b900416613327565b6002830154909150600090610b5a906001600160801b031683613365565b60028401549091506000908190610b7a906001600160801b03168561338b565b60088601546001600160801b0391821615159250165b836001600160801b0316816001600160801b03161015610c4d576000610bb78260016133b1565b6002880154610bcf91906001600160801b03166133dc565b6001880154610be791906001600160801b03166133b1565b9050806001600160801b03164210610c345760cb54610c1690600160801b90046001600160801b0316826133b1565b6001600160801b03164211610c2f576001935050610c4d565b610c3a565b50610c4d565b5080610c458161340b565b915050610b90565b5081610cb9578015610cb9576001850154600160801b90046001600160801b03164210801590610caf575060cb546001860154610ca2916001600160801b03600160801b9182900481169291909104166133b1565b6001600160801b03164211155b15610cb957600191505b5093505050505b919050565b60008051602061371d833981519152610cdd816124f8565b610ce5612502565b50565b60008051602061371d833981519152610d00816124f8565b5060cb80546001600160801b03928316600160801b029216919091179055565b600054610100900460ff16610d505760405162461bcd60e51b8152600401610d4790613432565b60405180910390fd5b604080518082018252600b81526a10dbdb9d1c9858dd199d5b60aa1b6020918201528151808301835260018152603160f81b9082015281517f8b73c3c69bb8fe3d512ecc4cf759cc79239f7b179b0ffacaa9a75d522b39400f818301527f4489533f11b9cc5c3a483b23f3634cc7d8cb2e3435fc90a29c7903cb1dd23ce8818401527fc89efdaa54c0f20c7adf612882df0950f5a951637e0307cdcb4c672f298b8bc660608201524660808201523060a0808301919091528351808303909101815260c0909101909252815191012060ca55565b60008051602061371d833981519152610e3c816124f8565b5060cc80546001600160801b0319166001600160801b0392909216919091179055565b600082815260656020526040902060010154610e7a816124f8565b610e848383612554565b505050565b6001600160a01b0381163314610ef95760405162461bcd60e51b815260206004820152602f60248201527f416363657373436f6e74726f6c3a2063616e206f6e6c792072656e6f756e636560448201526e103937b632b9903337b91039b2b63360891b6064820152608401610d47565b610f0382826125da565b5050565b600054610100900460ff1615808015610f275750600054600160ff909116105b80610f415750303b158015610f41575060005460ff166001145b610fa45760405162461bcd60e51b815260206004820152602e60248201527f496e697469616c697a61626c653a20636f6e747261637420697320616c72656160448201526d191e481a5b9a5d1a585b1a5e995960921b6064820152608401610d47565b6000805460ff191660011790558015610fc7576000805461ff0019166101001790555b610fcf610d20565b610fd7612641565b610fdf612668565b60cb80546001600160801b03808616600160801b0291161790556001600160a01b03821661100b573391505b611016600083612554565b61102e60008051602061371d83398151915283612554565b6110667ffc8737ab85eb45125971625a9ebdb75cc78e01d5c1fa80c4c6e5203f47bc4fab60008051602061371d83398151915261269b565b8015610e84576000805461ff0019169055604051600181527f7f26b83ff96e1f2b6a682f133852f6798a09c465da95921460cefb3847402498906020015b60405180910390a1505050565b60006110bb612445565b600082815260d1602052604090206110d2906126e6565b6110de57506000919050565b6110e782610aff565b1561129557600082815260d160205260408120600281015460098201805492936001600160801b03600160801b9093048316939192909161112a91859116613327565b82546101009290920a6001600160801b0381810219909316918316021790915560cc5460028401546000935060649261116d92811691600160801b9004166133dc565b6111779190613365565b60028301546111969190600160801b90046001600160801b03166133b1565b60028301549091506111b9908290600160801b90046001600160801b0316613327565b6001600160801b031660cd60008282546111d3919061347d565b909155505060048201546005830154611202916001600160a01b0390811691166001600160801b03841661273a565b600882018054600191906000906112239084906001600160801b03166133b1565b82546101009290920a6001600160801b03818102199093169183160217909155600284015460408051888152600160801b90920490921660208201527f101b32dc248c08277c4e9a662cd218570f12dccd5a0166380a12991934175f1592500160405180910390a15060019392505050565b506000919050565b6112a5612445565b60006112b3828401846134ab565b905060005b8151811015611319576112e38282815181106112d6576112d6613569565b60200260200101516110b1565b506113068282815181106112f9576112f9613569565b6020026020010151611ea5565b50806113118161330c565b9150506112b8565b50505050565b60d0602052816000526040600020818154811061133b57600080fd5b90600052602060002001600091509150505481565b611358612445565b600081815260d16020526040902060068101546001600160a01b03163314611393576040516303135bad60e61b815260040160405180910390fd5b60098101805460ff60801b1916600160801b1790819055600160901b900460ff16611455576004808201546006830154600984015460405163a9059cbb60e01b81526001600160a01b039384169463a9059cbb946113fd9416926001600160801b0316910161357f565b602060405180830381600087803b15801561141757600080fd5b505af115801561142b573d6000803e3d6000fd5b505050506040513d601f19601f8201168201806040525081019061144f91906135a1565b506117d6565b600181015460009061147a906001600160801b0380821691600160801b900416613327565b6002830154909150600090611498906001600160801b031683613365565b60028401549091506000906114b6906001600160801b03168461338b565b60028501546001600160801b03918216151592506000916114e39180821691600160801b90910416613365565b905060005b836001600160801b0316816001600160801b0316101561167a57600061150f8260016133b1565b600288015461152791906001600160801b03166133dc565b600188015461153f91906001600160801b03166133b1565b9050806001600160801b0316421015801561157a5750600287015461156d906001600160801b0316826133b1565b6001600160801b03164211155b15611667576004870154600588015460038901546001600160a01b039283169263a9059cbb9216906001600160801b03600160801b9091048116906115c1908616426135c3565b6115d4906001600160801b0389166135da565b6115de919061347d565b6040516001600160e01b031960e085901b1681526001600160a01b0390921660048301526024820152604401602060405180830381600087803b15801561162457600080fd5b505af1158015611638573d6000803e3d6000fd5b505050506040513d601f19601f8201168201806040525081019061165c91906135a1565b505050505050505050565b50806116728161340b565b9150506114e8565b5081156117d157600285015461169a9084906001600160801b03166133dc565b60018601546116b291906001600160801b03166133b1565b6001600160801b031642101580156116de57506001850154600160801b90046001600160801b03164211155b156117d15760048501546005860154600387015460018801546001600160a01b039384169363a9059cbb9316916001600160801b03600160801b9182900481169261172d9242929104166135c3565b611740906001600160801b0387166135da565b61174a919061347d565b6040516001600160e01b031960e085901b1681526001600160a01b0390921660048301526024820152604401602060405180830381600087803b15801561179057600080fd5b505af11580156117a4573d6000803e3d6000fd5b505050506040513d601f19601f820116820180604052508101906117c891906135a1565b50505050505050565b505050505b6040518281527f0cae0523c4d6568388c55dcaeb921d927527a60000ca46adffedddf87225f0ec9060200160405180910390a15050565b60008051602061371d833981519152611825816124f8565b60cd54836001600160801b0316111561185157604051630c7c9a7f60e11b815260040160405180910390fd5b600084815260d1602052604090206004810154611881906001600160a01b0316846001600160801b03871661273a565b5050505050565b611890612445565b60008051602061371d8339815191526118a8816124f8565b600084815260d16020526040902060098101546001600160801b03166118d0576118d0613299565b60098101805460ff60801b1916600160801b1790556118ef83856133b1565b6001600160801b031660641461191857604051630ab76a2560e41b815260040160405180910390fd5b60098101546000906064906119379087906001600160801b03166133dc565b6119419190613365565b60098301549091506000906064906119639087906001600160801b03166133dc565b61196d9190613365565b600484810154600586015460405163a9059cbb60e01b81529394506001600160a01b039182169363a9059cbb936119aa939092169187910161357f565b602060405180830381600087803b1580156119c457600080fd5b505af11580156119d8573d6000803e3d6000fd5b505050506040513d601f19601f820116820180604052508101906119fc91906135a1565b50600480840154600685015460405163a9059cbb60e01b81526001600160a01b039283169363a9059cbb93611a3593169186910161357f565b602060405180830381600087803b158015611a4f57600080fd5b505af1158015611a63573d6000803e3d6000fd5b505050506040513d601f19601f82011682018060405250810190611a8791906135a1565b50604080518881526001600160801b03848116602083015283168183015290517fcc66abc0fd6a7a2cd2810119d6bcbcbeba5a22f087936e5105ac81e84563393c9181900360600190a150505050505050565b600081815260c9602052604081205460ff1615611af657600080fd5b600082815260c960209081526040808320805460ff1916600117905551611b45917f9b5039e58350b398e1e74d78733f690324b2aafee15033156b0ba14d8846461091889188918891016135f9565b604051602081830303815290604052805190602001209050600060ca5482604051602001611b8a92919061190160f01b81526002810192909252602282015260420190565b60408051601f198184030181528282528051602091820120600080855291840180845281905260ff8d1692840192909252606083018b9052608083018a90529092509060019060a0016020604051602081039080840390855afa158015611bf5573d6000803e3d6000fd5b5050604051601f1901519150506001600160a01b038b1615801590611c2b5750806001600160a01b03168b6001600160a01b0316145b9b9a5050505050505050505050565b60006060600060cf8054905067ffffffffffffffff811115611c5e57611c5e613495565b604051908082528060200260200182016040528015611c87578160200160208202803683370190505b509050600080935060005b60cf54811015611d6757611cd460d1600060cf8481548110611cb657611cb6613569565b906000526020600020015481526020019081526020016000206126e6565b611cdd57611d55565b611d0360cf8281548110611cf357611cf3613569565b9060005260206000200154610aff565b15611d55576001945060cf8181548110611d1f57611d1f613569565b9060005260206000200154838381518110611d3c57611d3c613569565b602090810291909101015281611d518161330c565b9250505b80611d5f8161330c565b915050611c92565b5081604051602001611d79919061305a565b604051602081830303815290604052925050505b9250929050565b60009182526065602090815260408084206001600160a01b0393909316845291905290205460ff1690565b60008051602061371d833981519152611dd7816124f8565b610ce561276a565b611de7612445565b600081815260d1602052604090206009810154600160901b900460ff161580611e1b57506009810154600160801b900460ff165b80611e3157506009810154600160881b900460ff165b15611e4f5760405163c9c2be6d60e01b815260040160405180910390fd5b600082815260d160205260409081902060098101805460ff60881b1916600160881b17905590517fa34da6d2673f1264c5d1d4d7d5edaa12c53e8615fa6183cc1cfe6b6510637fce906110a49085815260200190565b6000611eaf612445565b600082815260d160205260409020611ec6906126e6565b611ed257506000919050565b600082815260d16020526040902060098101546001600160801b031615611efc5750600092915050565b60028101546009820180546001600160801b03600160801b909304831692600091611f29918591166133b1565b82546101009290920a6001600160801b03818102199093169183160217909155600483015460068401546002850154611f7d94506001600160a01b039283169392909116913091600160801b90041661248d565b600281015460408051858152600160801b9092046001600160801b031660208301527fd91647d68fadbc904f923d642788552eca006a63f0a8e08d123f6c901d963051910160405180910390a150600192915050565b6001600160a01b038116600090815260d0602090815260409182902080548351818402810184019094528084526060939283018282801561203357602002820191906000526020600020905b81548152602001906001019080831161201f575b50505050509050919050565b60d1602090815260009182526040918290208251610180810184528154815260018201546001600160801b0380821694830194909452600160801b908190048416948201949094526002820154808416606083015284900483166080820152600382015480841660a08301529390930490911660c083015260048101546001600160a01b0390811660e08401526005820154811661010084015260068201541661012083015260078101805491929183916101408401916120ff90613639565b80601f016020809104026020016040519081016040528092919081815260200182805461212b90613639565b80156121785780601f1061214d57610100808354040283529160200191612178565b820191906000526020600020905b81548152906001019060200180831161215b57829003601f168201915b5050509183525050600891909101546001600160801b0390811660209283015260408051608081018252600990950154918216855260ff600160801b83048116151593860193909352600160881b82048316151590850152600160901b900416151560608301529082565b6000828152606560205260409020600101546121fe816124f8565b610e8483836125da565b600081815260d1602052604090206009810154600160801b900460ff168061223b57506009810154600160901b900460ff165b1561225957604051638549e3e360e01b815260040160405180910390fd5b600082815260d16020526040902060058101546001600160a01b03163314612294576040516303135bad60e61b815260040160405180910390fd5b60098101805460ff60901b1916600160901b17905533600090815260d06020908152604080832060ce5481546001810183559185529290932090920155517fea49e8aa1bbaa9a7b16632ed4aba908b3c702861a23436c8356e296c228cc278906110a49085815260200190565b600081815260d16020526040812060018101546002820154600383015460048401546005850154600686015460088701546007880180548a998a998a998a998a998a998a998a996060998b996001600160801b03808a1699600160801b90819004821699828116999082900483169883821698929091048316966001600160a01b039182169692821695911693909290911690829061239f90613639565b80601f01602080910402602001604051908101604052809291908181526020018280546123cb90613639565b80156124185780601f106123ed57610100808354040283529160200191612418565b820191906000526020600020905b8154815290600101906020018083116123fb57829003601f168201915b505050505091509b509b509b509b509b509b509b509b509b509b509b505091939597999b90929496989a50565b60975460ff161561248b5760405162461bcd60e51b815260206004820152601060248201526f14185d5cd8589b194e881c185d5cd95960821b6044820152606401610d47565b565b6040516001600160a01b03808516602483015283166044820152606481018290526113199085906323b872dd60e01b906084015b60408051601f198184030181529190526020810180516001600160e01b03166001600160e01b0319909316929092179091526127a7565b610ce5813361287c565b61250a6128d5565b6097805460ff191690557f5db9ee0a495bf2e6ff9c91a7834c1ba4fdd244a5e8aa4e537bd38aeae4b073aa335b6040516001600160a01b03909116815260200160405180910390a1565b61255e8282611d94565b610f035760008281526065602090815260408083206001600160a01b03851684529091529020805460ff191660011790556125963390565b6001600160a01b0316816001600160a01b0316837f2f8788117e7eff1d82e926ec794901d17c78024a50270940304540a733656f0d60405160405180910390a45050565b6125e48282611d94565b15610f035760008281526065602090815260408083206001600160a01b0385168085529252808320805460ff1916905551339285917ff6391f5c32d9c69d2a47ea670b442974b53935d1edc7fd64eb21e047a839171b9190a45050565b600054610100900460ff1661248b5760405162461bcd60e51b8152600401610d4790613432565b600054610100900460ff1661268f5760405162461bcd60e51b8152600401610d4790613432565b6097805460ff19169055565b600082815260656020526040808220600101805490849055905190918391839186917fbd79b86ffe0ab8e8776151514217cd7cacd52c909f66475c3af44e129f0b00ff9190a4505050565b6009810154600090600160901b900460ff16158061270f57506009820154600160801b900460ff165b8061272557506009820154600160881b900460ff165b1561273257506000919050565b506001919050565b6040516001600160a01b038316602482015260448101829052610e8490849063a9059cbb60e01b906064016124c1565b612772612445565b6097805460ff191660011790557f62e78cea01bee320cd4e420270b5ea74000d11b0c9f74754ebdbfc544b05a2586125373390565b60006127fc826040518060400160405280602081526020017f5361666545524332303a206c6f772d6c6576656c2063616c6c206661696c6564815250856001600160a01b031661291e9092919063ffffffff16565b905080516000148061281d57508080602001905181019061281d91906135a1565b610e845760405162461bcd60e51b815260206004820152602a60248201527f5361666545524332303a204552433230206f7065726174696f6e20646964206e6044820152691bdd081cdd58d8d9595960b21b6064820152608401610d47565b6128868282611d94565b610f035761289381612937565b61289e836020612949565b6040516020016128af929190613674565b60408051601f198184030181529082905262461bcd60e51b8252610d4791600401612d78565b60975460ff1661248b5760405162461bcd60e51b815260206004820152601460248201527314185d5cd8589b194e881b9bdd081c185d5cd95960621b6044820152606401610d47565b606061292d8484600085612ae5565b90505b9392505050565b60606106336001600160a01b03831660145b606060006129588360026135da565b61296390600261347d565b67ffffffffffffffff81111561297b5761297b613495565b6040519080825280601f01601f1916602001820160405280156129a5576020820181803683370190505b509050600360fc1b816000815181106129c0576129c0613569565b60200101906001600160f81b031916908160001a905350600f60fb1b816001815181106129ef576129ef613569565b60200101906001600160f81b031916908160001a9053506000612a138460026135da565b612a1e90600161347d565b90505b6001811115612a96576f181899199a1a9b1b9c1cb0b131b232b360811b85600f1660108110612a5257612a52613569565b1a60f81b828281518110612a6857612a68613569565b60200101906001600160f81b031916908160001a90535060049490941c93612a8f816136e9565b9050612a21565b5083156129305760405162461bcd60e51b815260206004820181905260248201527f537472696e67733a20686578206c656e67746820696e73756666696369656e746044820152606401610d47565b606082471015612b465760405162461bcd60e51b815260206004820152602660248201527f416464726573733a20696e73756666696369656e742062616c616e636520666f6044820152651c8818d85b1b60d21b6064820152608401610d47565b600080866001600160a01b03168587604051612b629190613700565b60006040518083038185875af1925050503d8060008114612b9f576040519150601f19603f3d011682016040523d82523d6000602084013e612ba4565b606091505b5091509150612bb587838387612bc2565b925050505b949350505050565b60608315612c2e578251612c27576001600160a01b0385163b612c275760405162461bcd60e51b815260206004820152601d60248201527f416464726573733a2063616c6c20746f206e6f6e2d636f6e74726163740000006044820152606401610d47565b5081612bba565b612bba8383815115612c435781518083602001fd5b8060405162461bcd60e51b8152600401610d479190612d78565b828054612c6990613639565b90600052602060002090601f016020900481019282612c8b5760008555612cd1565b82601f10612ca457805160ff1916838001178555612cd1565b82800160010185558215612cd1579182015b82811115612cd1578251825591602001919060010190612cb6565b50612cdd929150612ce1565b5090565b5b80821115612cdd5760008155600101612ce2565b600060208284031215612d0857600080fd5b81356001600160e01b03198116811461293057600080fd5b60005b83811015612d3b578181015183820152602001612d23565b838111156113195750506000910152565b60008151808452612d64816020860160208601612d20565b601f01601f19169290920160200192915050565b6020815260006129306020830184612d4c565b600060208284031215612d9d57600080fd5b813567ffffffffffffffff811115612db457600080fd5b820160e0818503121561293057600080fd5b600060208284031215612dd857600080fd5b5035919050565b80356001600160801b0381168114610cc057600080fd5b600060208284031215612e0857600080fd5b61293082612ddf565b80356001600160a01b0381168114610cc057600080fd5b60008060408385031215612e3b57600080fd5b82359150612e4b60208401612e11565b90509250929050565b60008060408385031215612e6757600080fd5b612e7083612ddf565b9150612e4b60208401612e11565b60008083601f840112612e9057600080fd5b50813567ffffffffffffffff811115612ea857600080fd5b602083019150836020828501011115611d8d57600080fd5b60008060208385031215612ed357600080fd5b823567ffffffffffffffff811115612eea57600080fd5b612ef685828601612e7e565b90969095509350505050565b60008060408385031215612f1557600080fd5b612f1e83612e11565b946020939093013593505050565b600080600060608486031215612f4157600080fd5b83359250612f5160208501612ddf565b9150612f5f60408501612e11565b90509250925092565b600080600060608486031215612f7d57600080fd5b83359250612f8d60208501612ddf565b9150612f5f60408501612ddf565b600080600080600080600060c0888a031215612fb657600080fd5b612fbf88612e11565b9650602088013560ff81168114612fd557600080fd5b95506040880135945060608801359350608088013567ffffffffffffffff811115612fff57600080fd5b61300b8a828b01612e7e565b989b979a5095989497959660a090950135949350505050565b821515815260406020820152600061292d6040830184612d4c565b60006020828403121561305157600080fd5b61293082612e11565b6020808252825182820181905260009190848201906040850190845b8181101561309257835183529284019291840191600101613076565b50909695505050505050565b60a08152825160a0820152600060208401516130c560c08401826001600160801b03169052565b5060408401516001600160801b03811660e08401525060608401516101006130f7818501836001600160801b03169052565b60808601519150610120613115818601846001600160801b03169052565b60a08701519250610140613133818701856001600160801b03169052565b60c08801519350610160613151818801866001600160801b03169052565b60e0890151945061018061316f818901876001600160a01b03169052565b848a01516001600160a01b039081166101a08a0152848b0151166101c0890152828a01516101e089019190915294506131ac610220880186612d4c565b94508089015193505050506131cd6102008501826001600160801b03169052565b50905061293060208301846001600160801b0381511682526020810151151560208301526040810151151560408301526060810151151560608301525050565b6001600160801b038c811682528b811660208301528a811660408301528981166060830152888116608083015287811660a08301526001600160a01b0387811660c084015286811660e08401528516610100830152610160610120830181905260009161327c84830187612d4c565b925080851661014085015250509c9b505050505050505050505050565b634e487b7160e01b600052600160045260246000fd5b6000808335601e198436030181126132c657600080fd5b83018035915067ffffffffffffffff8211156132e157600080fd5b602001915036819003821315611d8d57600080fd5b634e487b7160e01b600052601160045260246000fd5b6000600019821415613320576133206132f6565b5060010190565b60006001600160801b0383811690831681811015613347576133476132f6565b039392505050565b634e487b7160e01b600052601260045260246000fd5b60006001600160801b038084168061337f5761337f61334f565b92169190910492915050565b60006001600160801b03808416806133a5576133a561334f565b92169190910692915050565b60006001600160801b038083168185168083038211156133d3576133d36132f6565b01949350505050565b60006001600160801b0380831681851681830481118215151615613402576134026132f6565b02949350505050565b60006001600160801b0380831681811415613428576134286132f6565b6001019392505050565b6020808252602b908201527f496e697469616c697a61626c653a20636f6e7472616374206973206e6f74206960408201526a6e697469616c697a696e6760a81b606082015260800190565b60008219821115613490576134906132f6565b500190565b634e487b7160e01b600052604160045260246000fd5b600060208083850312156134be57600080fd5b823567ffffffffffffffff808211156134d657600080fd5b818501915085601f8301126134ea57600080fd5b8135818111156134fc576134fc613495565b8060051b604051601f19603f8301168101818110858211171561352157613521613495565b60405291825284820192508381018501918883111561353f57600080fd5b938501935b8285101561355d57843584529385019392850192613544565b98975050505050505050565b634e487b7160e01b600052603260045260246000fd5b6001600160a01b039290921682526001600160801b0316602082015260400190565b6000602082840312156135b357600080fd5b8151801515811461293057600080fd5b6000828210156135d5576135d56132f6565b500390565b60008160001904831182151516156135f4576135f46132f6565b500290565b848152606060208201528260608201528284608083013760006080848301015260006080601f19601f860116830101905082604083015295945050505050565b600181811c9082168061364d57607f821691505b6020821081141561366e57634e487b7160e01b600052602260045260246000fd5b50919050565b7f416363657373436f6e74726f6c3a206163636f756e74200000000000000000008152600083516136ac816017850160208801612d20565b7001034b99036b4b9b9b4b733903937b6329607d1b60179184019182015283516136dd816028840160208801612d20565b01602801949350505050565b6000816136f8576136f86132f6565b506000190190565b60008251613712818460208701612d20565b919091019291505056fe71840dc4906352362b0cdaf79870196c8e42acafade72d5d5a6d59291253ceb1a26469706673582212203a1bd87e1548558264fada244eb5031996756c9de5fa00cdf06e8de97bc21f8664736f6c63430008090033",
  "linkReferences": {},
  "deployedLinkReferences": {}
}