{
  "_format": "hh-sol-artifact-1",
  "contractName": "Validator",
  "sourceName": "src/Validator.sol",
  "abi": [
    {
      "anonymous": false,
      "inputs": [
        {
          "indexed": false,
          "internalType": "uint8",
          "name": "version",
          "type": "uint8"
        }
      ],
      "name": "Initialized",
      "type": "event"
    },
    {
      "anonymous": false,
      "inputs": [
        {
          "indexed": false,
          "internalType": "address",
          "name": "account",
          "type": "address"
        }
      ],
      "name": "Paused",
      "type": "event"
    },
    {
      "anonymous": false,
      "inputs": [
        {
          "indexed": true,
          "internalType": "bytes32",
          "name": "role",
          "type": "bytes32"
        },
        {
          "indexed": true,
          "internalType": "bytes32",
          "name": "previousAdminRole",
          "type": "bytes32"
        },
        {
          "indexed": true,
          "internalType": "bytes32",
          "name": "newAdminRole",
          "type": "bytes32"
        }
      ],
      "name": "RoleAdminChanged",
      "type": "event"
    },
    {
      "anonymous": false,
      "inputs": [
        {
          "indexed": true,
          "internalType": "bytes32",
          "name": "role",
          "type": "bytes32"
        },
        {
          "indexed": true,
          "internalType": "address",
          "name": "account",
          "type": "address"
        },
        {
          "indexed": true,
          "internalType": "address",
          "name": "sender",
          "type": "address"
        }
      ],
      "name": "RoleGranted",
      "type": "event"
    },
    {
      "anonymous": false,
      "inputs": [
        {
          "indexed": true,
          "internalType": "bytes32",
          "name": "role",
          "type": "bytes32"
        },
        {
          "indexed": true,
          "internalType": "address",
          "name": "account",
          "type": "address"
        },
        {
          "indexed": true,
          "internalType": "address",
          "name": "sender",
          "type": "address"
        }
      ],
      "name": "RoleRevoked",
      "type": "event"
    },
    {
      "anonymous": false,
      "inputs": [
        {
          "indexed": false,
          "internalType": "address",
          "name": "account",
          "type": "address"
        }
      ],
      "name": "Unpaused",
      "type": "event"
    },
    {
      "inputs": [],
      "name": "DEFAULT_ADMIN_ROLE",
      "outputs": [
        {
          "internalType": "bytes32",
          "name": "",
          "type": "bytes32"
        }
      ],
      "stateMutability": "view",
      "type": "function"
    },
    {
      "inputs": [],
      "name": "DOMAIN_SEPARATOR",
      "outputs": [
        {
          "internalType": "bytes32",
          "name": "",
          "type": "bytes32"
        }
      ],
      "stateMutability": "view",
      "type": "function"
    },
    {
      "inputs": [
        {
          "internalType": "bytes32",
          "name": "role",
          "type": "bytes32"
        }
      ],
      "name": "getRoleAdmin",
      "outputs": [
        {
          "internalType": "bytes32",
          "name": "",
          "type": "bytes32"
        }
      ],
      "stateMutability": "view",
      "type": "function"
    },
    {
      "inputs": [
        {
          "internalType": "bytes32",
          "name": "role",
          "type": "bytes32"
        },
        {
          "internalType": "address",
          "name": "account",
          "type": "address"
        }
      ],
      "name": "grantRole",
      "outputs": [],
      "stateMutability": "nonpayable",
      "type": "function"
    },
    {
      "inputs": [
        {
          "internalType": "bytes32",
          "name": "role",
          "type": "bytes32"
        },
        {
          "internalType": "address",
          "name": "account",
          "type": "address"
        }
      ],
      "name": "hasRole",
      "outputs": [
        {
          "internalType": "bool",
          "name": "",
          "type": "bool"
        }
      ],
      "stateMutability": "view",
      "type": "function"
    },
    {
      "inputs": [],
      "name": "initialize_",
      "outputs": [],
      "stateMutability": "nonpayable",
      "type": "function"
    },
    {
      "inputs": [],
      "name": "name",
      "outputs": [
        {
          "internalType": "string",
          "name": "",
          "type": "string"
        }
      ],
      "stateMutability": "view",
      "type": "function"
    },
    {
      "inputs": [],
      "name": "paused",
      "outputs": [
        {
          "internalType": "bool",
          "name": "",
          "type": "bool"
        }
      ],
      "stateMutability": "view",
      "type": "function"
    },
    {
      "inputs": [
        {
          "internalType": "bytes32",
          "name": "role",
          "type": "bytes32"
        },
        {
          "internalType": "address",
          "name": "account",
          "type": "address"
        }
      ],
      "name": "renounceRole",
      "outputs": [],
      "stateMutability": "nonpayable",
      "type": "function"
    },
    {
      "inputs": [
        {
          "internalType": "bytes32",
          "name": "role",
          "type": "bytes32"
        },
        {
          "internalType": "address",
          "name": "account",
          "type": "address"
        }
      ],
      "name": "revokeRole",
      "outputs": [],
      "stateMutability": "nonpayable",
      "type": "function"
    },
    {
      "inputs": [
        {
          "internalType": "bytes4",
          "name": "interfaceId",
          "type": "bytes4"
        }
      ],
      "name": "supportsInterface",
      "outputs": [
        {
          "internalType": "bool",
          "name": "",
          "type": "bool"
        }
      ],
      "stateMutability": "view",
      "type": "function"
    },
    {
      "inputs": [
        {
          "internalType": "uint256",
          "name": "",
          "type": "uint256"
        }
      ],
      "name": "usedNonces",
      "outputs": [
        {
          "internalType": "bool",
          "name": "",
          "type": "bool"
        }
      ],
      "stateMutability": "view",
      "type": "function"
    },
    {
      "inputs": [
        {
          "internalType": "address",
          "name": "signer",
          "type": "address"
        },
        {
          "internalType": "uint8",
          "name": "v",
          "type": "uint8"
        },
        {
          "internalType": "bytes32",
          "name": "r",
          "type": "bytes32"
        },
        {
          "internalType": "bytes32",
          "name": "s",
          "type": "bytes32"
        },
        {
          "internalType": "string",
          "name": "description",
          "type": "string"
        },
        {
          "internalType": "uint256",
          "name": "nonce",
          "type": "uint256"
        }
      ],
      "name": "validateDescription",
      "outputs": [
        {
          "internalType": "bool",
          "name": "",
          "type": "bool"
        }
      ],
      "stateMutability": "nonpayable",
      "type": "function"
    }
  ],
  "bytecode": "0x608060405234801561001057600080fd5b50610c09806100206000396000f3fe608060405234801561001057600080fd5b50600436106100cf5760003560e01c806336568abe1161008c5780636944560c116100665780636944560c146101cb57806391d14854146101de578063a217fddf146101f1578063d547741f146101f957600080fd5b806336568abe1461018a5780635c975abb1461019d5780636717e41c146101a857600080fd5b806301ffc9a7146100d457806306fdde03146100fc5780631c8abcec14610133578063248a9ca31461013d5780632f2ff15d1461016e5780633644e51514610181575b600080fd5b6100e76100e23660046108e7565b61020c565b60405190151581526020015b60405180910390f35b6101266040518060400160405280600b81526020016a10dbdb9d1c9858dd199d5b60aa1b81525081565b6040516100f39190610941565b61013b610243565b005b61016061014b366004610974565b60009081526065602052604090206001015490565b6040519081526020016100f3565b61013b61017c3660046109a9565b610387565b61016060ca5481565b61013b6101983660046109a9565b6103b1565b60975460ff166100e7565b6100e76101b6366004610974565b60c96020526000908152604090205460ff1681565b6100e76101d93660046109d5565b61042f565b6100e76101ec3660046109a9565b61058f565b610160600081565b61013b6102073660046109a9565b6105ba565b60006001600160e01b03198216637965db0b60e01b148061023d57506301ffc9a760e01b6001600160e01b03198316145b92915050565b600054610100900460ff166102b35760405162461bcd60e51b815260206004820152602b60248201527f496e697469616c697a61626c653a20636f6e7472616374206973206e6f74206960448201526a6e697469616c697a696e6760a81b60648201526084015b60405180910390fd5b604080518082018252600b81526a10dbdb9d1c9858dd199d5b60aa1b6020918201528151808301835260018152603160f81b9082015281517f8b73c3c69bb8fe3d512ecc4cf759cc79239f7b179b0ffacaa9a75d522b39400f818301527f4489533f11b9cc5c3a483b23f3634cc7d8cb2e3435fc90a29c7903cb1dd23ce8818401527fc89efdaa54c0f20c7adf612882df0950f5a951637e0307cdcb4c672f298b8bc660608201524660808201523060a0808301919091528351808303909101815260c0909101909252815191012060ca55565b6000828152606560205260409020600101546103a2816105df565b6103ac83836105ec565b505050565b6001600160a01b03811633146104215760405162461bcd60e51b815260206004820152602f60248201527f416363657373436f6e74726f6c3a2063616e206f6e6c792072656e6f756e636560448201526e103937b632b9903337b91039b2b63360891b60648201526084016102aa565b61042b8282610672565b5050565b600081815260c9602052604081205460ff161561044b57600080fd5b600082815260c960209081526040808320805460ff191660011790555161049a917f9b5039e58350b398e1e74d78733f690324b2aafee15033156b0ba14d884646109188918891889101610a8e565b604051602081830303815290604052805190602001209050600060ca54826040516020016104df92919061190160f01b81526002810192909252602282015260420190565b60408051601f198184030181528282528051602091820120600080855291840180845281905260ff8d1692840192909252606083018b9052608083018a90529092509060019060a0016020604051602081039080840390855afa15801561054a573d6000803e3d6000fd5b5050604051601f1901519150506001600160a01b038b16158015906105805750806001600160a01b03168b6001600160a01b0316145b9b9a5050505050505050505050565b60009182526065602090815260408084206001600160a01b0393909316845291905290205460ff1690565b6000828152606560205260409020600101546105d5816105df565b6103ac8383610672565b6105e981336106d9565b50565b6105f6828261058f565b61042b5760008281526065602090815260408083206001600160a01b03851684529091529020805460ff1916600117905561062e3390565b6001600160a01b0316816001600160a01b0316837f2f8788117e7eff1d82e926ec794901d17c78024a50270940304540a733656f0d60405160405180910390a45050565b61067c828261058f565b1561042b5760008281526065602090815260408083206001600160a01b0385168085529252808320805460ff1916905551339285917ff6391f5c32d9c69d2a47ea670b442974b53935d1edc7fd64eb21e047a839171b9190a45050565b6106e3828261058f565b61042b576106f081610732565b6106fb836020610744565b60405160200161070c929190610ace565b60408051601f198184030181529082905262461bcd60e51b82526102aa91600401610941565b606061023d6001600160a01b03831660145b60606000610753836002610b59565b61075e906002610b78565b67ffffffffffffffff81111561077657610776610b90565b6040519080825280601f01601f1916602001820160405280156107a0576020820181803683370190505b509050600360fc1b816000815181106107bb576107bb610ba6565b60200101906001600160f81b031916908160001a905350600f60fb1b816001815181106107ea576107ea610ba6565b60200101906001600160f81b031916908160001a905350600061080e846002610b59565b610819906001610b78565b90505b6001811115610891576f181899199a1a9b1b9c1cb0b131b232b360811b85600f166010811061084d5761084d610ba6565b1a60f81b82828151811061086357610863610ba6565b60200101906001600160f81b031916908160001a90535060049490941c9361088a81610bbc565b905061081c565b5083156108e05760405162461bcd60e51b815260206004820181905260248201527f537472696e67733a20686578206c656e67746820696e73756666696369656e7460448201526064016102aa565b9392505050565b6000602082840312156108f957600080fd5b81356001600160e01b0319811681146108e057600080fd5b60005b8381101561092c578181015183820152602001610914565b8381111561093b576000848401525b50505050565b6020815260008251806020840152610960816040850160208701610911565b601f01601f19169190910160400192915050565b60006020828403121561098657600080fd5b5035919050565b80356001600160a01b03811681146109a457600080fd5b919050565b600080604083850312156109bc57600080fd5b823591506109cc6020840161098d565b90509250929050565b600080600080600080600060c0888a0312156109f057600080fd5b6109f98861098d565b9650602088013560ff81168114610a0f57600080fd5b95506040880135945060608801359350608088013567ffffffffffffffff80821115610a3a57600080fd5b818a0191508a601f830112610a4e57600080fd5b813581811115610a5d57600080fd5b8b6020828501011115610a6f57600080fd5b60208301955080945050505060a0880135905092959891949750929550565b848152606060208201528260608201528284608083013760006080848301015260006080601f19601f860116830101905082604083015295945050505050565b7f416363657373436f6e74726f6c3a206163636f756e7420000000000000000000815260008351610b06816017850160208801610911565b7001034b99036b4b9b9b4b733903937b6329607d1b6017918401918201528351610b37816028840160208801610911565b01602801949350505050565b634e487b7160e01b600052601160045260246000fd5b6000816000190483118215151615610b7357610b73610b43565b500290565b60008219821115610b8b57610b8b610b43565b500190565b634e487b7160e01b600052604160045260246000fd5b634e487b7160e01b600052603260045260246000fd5b600081610bcb57610bcb610b43565b50600019019056fea26469706673582212203d7f49cf50b80e5a1614adbddd02fc0298e8bd72e70764db9eb8083479034db364736f6c63430008090033",
  "linkReferences": {},
  "deployedLinkReferences": {}
}